:100000000C947B010C94AC010C94AC010C94AC01ED
:100010000C94AC010C94AC010C94AC010C94AC01AC
:100020000C94AC010C94AC010C94AC010C94AC019C
:100030000C94AC010C94AC010C94AC010C94AC018C
:100040000C94AC010C94AC010C94AC010C94AC017C
:100050000C94AC010C94AC010C94AC010C94270BE7
:100060000C94AC010C94F10A0C94C70A0C94AC01EA
:100070000C94AC010C94AC010C94AC010C94AC014C
:100080000C94AC010C94AC010C94AC010C94AC013C
:100090000C94AC010C94AC010C94AC010C94710B5D
:1000A0000C94AC010C94AC010C94AC010C94AC011C
:1000B0000C94AC010C94AC010C94AC010C94AC010C
:1000C0000C94AC010C94AC010C94AC010C94AC01FC
:1000D0000C94AC010C94AC010C94AC010C94AC01EC
:1000E0000C94AC010C9489080C943B030C94DB0138
:1000F0000C9403060C9412030C94B8080C9463043B
:100100000C94E0050C94E6040C9429030C94330839
:100110000C94EA030C946F040C9415030C943C04A7
:100120000C940E030C942A100C94D8050C944103E3
:100130000C942D030C9467040C94EA010C9437037F
:100140000C94C1050C943B050C940A060C943303E3
:100150000C94C5040C9425030C941B030C94F50516
:100160000C94FC050C9431080C941F030C9483052B
:100170000C941E040C9469040C946B040C9461049C
:100180000C9400030C94EE050C94AE010C945C08E6
:100190000C9442080C94FE010C9444020C9440030D
:1001A0000C9432080C941A050C940A030C94450321
:1001B0000C9406030C9465040C9491020C946D0548
:1001C0000C9430080C940C020C9455080C94E70520
:1001D0000C946D04000020002300260029002C0050
:1001E0002F00320000010000030106010901000098
:1001F0002100240027002A002D00300033000101D7
:100200000000040107010A01000022002500280067
:100210002B002E003100340002010000050108010E
:100220000B0105050505070508080808020202027A
:100230000A0A080804040404010101010101010182
:100240000303030303030303040707070C0C0C0C4D
:100250000C0C0C0C02020202060606060606060636
:100260000B0B0B0B0B0B0B0B0102102020080810C3
:100270002040102040800201020108040201010216
:1002800004081020408080402010080402018004EF
:10029000020180402010080402010804020101024A
:1002A0000408102040800102040810204080000053
:1002B0000A0B02090C0D0E080703040100000000E0
:1002C000000000000000000000000000000000002E
:1002D00000000000000000000000121110000000EB
:1002E000000000000000000000000000000000000E
:1002F000000000002A1011241FBECFEFD1E2DEBFA4
:10030000CDBF00E00CBF12E0A0E0B2E0EAE5F2E30E
:1003100000E00BBF02C007900D92A834B107D9F7D7
:1003200026E0A8E4B2E001C01D92AA36B207E1F7C8
:1003300011E0CBE7D1E000E006C021970109802F52
:10034000FE010E940619CA37D10780E00807A9F705
:100350000E9430110C942B190C940000AF92BF92A4
:10036000CF92DF92EF92FF920F931F93CF93DF9381
:100370006C017B018B01040F151FEB015E01AE18B0
:10038000BF08C017D10759F06991D601ED91FC91D2
:100390000190F081E02DC6011995892B79F7C501EF
:1003A000DF91CF911F910F91FF90EF90DF90CF9051
:1003B000BF90AF900895FC01538D448D252F30E000
:1003C000842F90E0821B930B541710F0CF96089562
:1003D00001970895FC01918D828D981761F0A28D8F
:1003E000AE0FBF2FB11D5D968C91928D9F5F9F7355
:1003F000928F90E008958FEF9FEF0895FC01918D0B
:10040000828D981731F0828DE80FF11D858D90E077
:1004100008958FEF9FEF0895FC01918D228D892F14
:1004200090E0805C9F4F821B91098F7399270895FC
:100430008BE093E00E940C0221E0892B09F420E07C
:10044000822F0895FC01A48DA80FB92FB11DA35AC6
:10045000BF4F2C91848D90E001968F739927848FE4
:10046000A689B7892C93A089B1898C918370806407
:100470008C93938D848D981306C00288F389E02DA8
:1004800080818F7D80830895EF92FF920F931F9359
:10049000CF93DF93EC0181E0888F9B8D8C8D981337
:1004A0001AC0E889F989808185FF15C09FB7F89443
:1004B000EE89FF896083E889F9898081837080648F
:1004C00080839FBF81E090E0DF91CF911F910F91DA
:1004D000FF90EF900895F62E0B8D10E00F5F1F4FE9
:1004E0000F731127E02E8C8D8E110CC00FB607FCF8
:1004F000FACFE889F989808185FFF5CFCE010E9486
:100500002202F1CFEB8DEC0FFD2FF11DE35AFF4FCF
:10051000F0829FB7F8940B8FEA89FB898081806213
:10052000CFCFCF93DF93EC01888D8823B9F0AA89D0
:10053000BB89E889F9898C9185FD03C0808186FD9E
:100540000DC00FB607FCF7CF8C9185FFF2CF8081ED
:1005500085FFEDCFCE010E942202E9CFDF91CF913E
:10056000089580E090E0892B29F00E941802811103
:100570000E94000080E090E0892B49F080E090E04C
:10058000892B29F00E94000081110E94000080E068
:1005900090E0892B49F080E090E0892B29F00E94BF
:1005A000000081110E94000080E090E0892B49F05A
:1005B00080E090E0892B29F00E94000081110C94CA
:1005C000000008958150823108F05AC0E82FF0E011
:1005D0008827E251FD4F8F4F0C9406190E0312032A
:1005E000000306030A03400315031B031F0325032F
:1005F00029032D033303370340033B034103450322
:10060000809180008F778093800008958091800092
:100610008F7DF9CF80918000877FF5CF84B58F776C
:1006200084BD089584B58F7DFBCF8091B0008F7716
:100630008093B00008958091B0008F7DF9CF8091B4
:1006400090008F77809390000895809190008F7D27
:10065000F9CF80919000877FF5CF8091A0008F77B0
:100660008093A00008958091A0008F7DF9CF8091A4
:10067000A000877FF5CF809120018F7780932001A4
:100680000895809120018F7DF9CF80912001877F8F
:10069000F5CF1F93CF93DF93282F30E0F901E25578
:1006A000FD4F8491F901E859FD4FD491F901EE5DB8
:1006B000FD4FC491CC23A9F0162F81110E94E202B4
:1006C000EC2FF0E0EE0FFF1FE85FFD4FA591B49116
:1006D0008FB7F894EC91111108C0D095DE23DC930C
:1006E0008FBFDF91CF911F910895DE2BF8CFCF936D
:1006F000DF9390E0FC01E859FD4F24918E5D9D4F02
:10070000FC0184918823D1F090E0880F991FFC01AF
:10071000E251FE4FA591B491FC01E85FFD4FC591F8
:10072000D491623071F49FB7F8943C91822F8095F8
:1007300083238C93E8812E2B28839FBFDF91CF9159
:1007400008958FB7F894EC912E2B2C938FBFF6CF92
:10075000863308F0865320917B00982F9870277F6E
:10076000922B90937B008770806480937C008091B3
:100770007A00806480937A0080917A0086FDFCCFB5
:10078000809178009091790008953FB7F894809116
:10079000070390910803A0910903B0910A0326B5BD
:1007A000A89B05C02F3F19F00196A11DB11D3FBFA9
:1007B000BA2FA92F982F8827BC01CD01620F711D78
:1007C000811D911D42E0660F771F881F991F4A9572
:1007D000D1F70895CF93DF93FC012381222359F1B0
:1007E000EC0161E084810E94770361E08D810E94C9
:1007F00077038B81843011F08830B1F461E08E8111
:100800000E94770361E08F810E9477038FA58F3F5D
:1008100091F061E00E9477036EA581E068278FA5C3
:10082000DF91CF910C944903833011F0863071F73A
:1008300061E08E81E9CFDF91CF910895CF93DF936F
:10084000FC0123812223A9F0EC010190F081E02D2D
:100850000480F581E02D60E019958FA58F3F49F068
:1008600061E00E9477036EA58FA5DF91CF910C9474
:100870004903DF91CF910895DC01ED91FC9111972F
:1008800024813581477055276627772741505109C4
:1008900061097109473051056105710570F4FA016C
:1008A0008827EA5AFB4F8F4F0C94061961046304A2
:1008B0006504670469046B046D0461E0CD01F9010E
:1008C000199465E0FBCF64E0F9CF66E0F7CF62E012
:1008D000F5CF6AE0F3CF68E0F1CF69E0EFCFCF93D7
:1008E000DF93EC01CB01BA0126E030E040E050E0BC
:1008F0000E94F615623071058105910589F16CF44D
:100900006115710581059105D1F061307105810591
:100910009105F9F0DF91CF9108956430710581055B
:10092000910561F124F1653071058105910591F71B
:10093000E881F9810480F581E02D66E006C0E88158
:10094000F9810480F581E02D64E0CE01DF91CF9143
:100950001994E881F9810480F581E02D65E0F5CFF7
:10096000E881F9810480F581E02D61E0EECFE88136
:10097000F9810480F581E02D63E0E7CFE881F9811A
:100980000480F581E02D62E0E0CFDC01ED91FC9187
:100990000480F581E02D4370552766277727423084
:1009A00051056105710571F043305105610571050F
:1009B00059F0413051056105710511F065E0199458
:1009C00066E0FDCF6AE0FBCF69E0F9CFCF93DF931C
:1009D000EC01CB01BA0123E030E040E050E00E949E
:1009E000F615613071058105910599F06230710548
:1009F00081059105A9F0672B682B692BC1F4E8816B
:100A0000F9810480F581E02D64E0CE01DF91CF9182
:100A10001994E881F9810480F581E02D61E0F5CF3A
:100A2000E881F9810480F581E02D62E0EECFDF916D
:100A3000CF910895DC01ED91FC910480F581E02DCA
:100A400043705527662777274230510561057105A8
:100A500071F0433051056105710559F04130510580
:100A60006105710511F062E0199463E0FDCF61E06A
:100A7000FBCF60E0F9CFCF93DF93EC01E881F98100
:100A80000480F581E02D8A8160E0811162E0CE0171
:100A90001995E881F9810480F581E02D8A8161E072
:100AA000811163E0CE0119958CA59DA58230910539
:100AB00038F0880F991F880F991F05970197F1F754
:100AC000E881F9810480F581E02D8A8160E081115F
:100AD00062E0CE01DF91CF911994CF93DF93EC01C7
:100AE00020E030E0A9016C897D898E899F890E9470
:100AF000251818162CF4E8A9F9A9DF91CF911994BB
:100B0000EAA9FBA9FACFCF92DF92EF92FF920F935F
:100B10001F93CF93DF93DC011396CC91C43039F04F
:100B2000C83059F1C33019F0C63049F1C2E08C0128
:100B30000C5F1F4FF12CE12CC62ED12CD1E0F80117
:100B40006481C6010E2C02C0959587950A94E2F740
:100B500080FD6D270F5F1F4F80810E944903BFEF0B
:100B6000EB1AFB0AEC1658F3DF91CF911F910F910E
:100B7000FF90EF90DF90CF900895C4E0D8CFC3E00E
:100B8000D6CFDC011396EC911397E93008F042C000
:100B9000F0E08827E153FA4F8F4F0C940619D805DF
:100BA000E005E705EE05F5050A06FC050A0603065D
:100BB000ED91FC9111970084F185E02DCD01199400
:100BC000ED91FC9111970284F385E02DF7CFED9123
:100BD000FC9111970484F585E02DF0CFED91FC9107
:100BE00011970684F785E02DE9CFED91FC911197DF
:100BF0000088F189E02DE2CFED91FC9111970288F8
:100C0000F389E02DDBCFED91FC9111970488F589F4
:100C1000E02DD4CF08954F925F926F927F928F9282
:100C20009F92AF92BF92CF92DF92EF92FF920F937B
:100C30001F93CF93DF93EC01C888D988EA88FB889B
:100C40008C859D85AE85BF85C81AD90AEA0AFB0A3C
:100C50006C897D898E899F899B01AC010E942A182D
:100C60004B015C016C8D7D8D8E8D9F8D9B01AC0148
:100C70000E945A169B01AC01C501B4010E94CB161B
:100C80000E943D17C114D104E104F10409F0B1C080
:100C900062307105810591050CF0CBC01CA21DA22C
:100CA0001EA21FA21C8A1D8A1E8A1F8A1CAA1DAA98
:100CB0001EAA1FAADF91CF911F910F91FF90EF9075
:100CC000DF90CF90BF90AF909F908F907F906F906C
:100CD0005F904F9008951016110612061306B4F493
:100CE0006C157D058E059F051CF42A812111A1C07C
:100CF0009B01AC0188279927DC01821B930BA40B75
:100D0000B50B8CAB9DABAEABBFAB93C00115110562
:100D10002105310509F48DC06C157D058E059F05F3
:100D20000CF087C08A81882309F483C03095209510
:100D3000109501951F4F2F4F3F4F0CAB1DAB2EABA6
:100D40003FAB77C0011511052105310509F471C0CC
:100D50008824992454018C189D08AE08BF08681592
:100D600079058A059B050CF064C08A81811161C0F8
:100D7000DDCFCCACDDACEEACFFACA7019601C7017A
:100D8000B6010E945A162B013C01C501B4010E9414
:100D9000751720E030E040E850E40E942A1820E077
:100DA00030E040E85FE30E945A169B01AC01C301AA
:100DB000B2010E94CB169B01AC01C701B6010E9493
:100DC00059163B016C01FE01E05CFF4FE080F180B1
:100DD000028113819701A8010E942518181614F4A6
:100DE00073018601C701D8018CAF9DAFAEAFBFAF15
:100DF0003AC00CA91DA92EA93FA91C141D041E044C
:100E00001F040CF468CF10161106120613060CF01E
:100E100099CF0027112798010C191D092E093F09A8
:100E200060177107820793070CF062CF2A812111A6
:100E30005FCF8CA89DA8AEA8BFA881149104A1047F
:100E4000B10409F096CF88AD99ADAAADBBAD8CAF1A
:100E50009DAFAEAFBFAF81E01C141D041E041F0484
:100E60000CF080E08A833FEF831A930AA30AB30A47
:100E70008CAA9DAAAEAABFAACCACDDACEEACFFACEE
:100E8000C701B6010E9444176CA37DA38EA39FA344
:100E9000A701960160E074E284E799E40E94CB1612
:100EA0006C8B7D8B8E8B9F8B2A81211103CF905869
:100EB0006C8B7D8B8E8B9F8BFDCECF92DF92EF92D2
:100EC000FF92CF93DF93EC018CA19DA1AEA1BFA1B6
:100ED000892B8A2B8B2BB9F10E94C5036B017C01F6
:100EE00088A599A5AAA5BBA5B701A601481B590BC2
:100EF0006A0B7B0B8CA19DA1AEA1BFA1481759071E
:100F00006A077B0700F18C859D85AE85BF852A81A8
:100F10002223D1F10196A11DB11D8C879D87AE873B
:100F2000BF874C855D856E857F85E881F981068068
:100F3000F781E02DCE011995C8A6D9A6EAA6FBA691
:100F4000CE010E940B0620E030E0A9016C897D896A
:100F50008E899F890E94C61681111AC081E0C888B7
:100F6000D988EA88FB884C855D856E857F85C416A7
:100F7000D506E606F70609F480E0DF91CF91FF90F1
:100F8000EF90DF90CF9008950197A109B109C5CFE7
:100F900081E0F3CF2091B602260F3327331F213291
:100FA0003105ECF42091DC02FC0190E080E024307B
:100FB00069F082E00895A091B6022191AC014C56EF
:100FC0005D4FA40FB52FB11D2C930196861798F392
:100FD0008091B602680F6093B60280E0089581E0C8
:100FE00008951092DC0281E08093DE021092DD020F
:100FF00061E084E10E94490361E085E10E944903C8
:10100000E9EBF0E080818E7F808380818D7F80831B
:1010100088E48093B80085E48093BC000895CF9362
:10102000DF9391E0909393028823B9F0C091B800C8
:10103000D091BA008091BC008A7B8093BC0060E0B4
:1010400084E10E94490360E085E10E9449030E9417
:10105000F107D093BA00C093B800DF91CF91089503
:10106000089508950895E0918B0280918A02E8170F
:1010700030F4F0E0E659FD4F808190E008958FEF65
:101080009FEF089590918B0280918A022FEF3FEF9E
:10109000981748F4E92FF0E0E659FD4F208130E041
:1010A0009F5F90938B02C901089580918A0290916D
:1010B0008B02891B990B0895CF92DF92EF92FF92DA
:1010C0000F931F93CF93DF937C01CB018A01209173
:1010D0006902222389F0EB016B01C40ED51ECC15E9
:1010E000DD0569F06991D701ED91FC910190F081E6
:1010F000E02DC7011995F3CF642F0E94CA07C801DC
:10110000DF91CF911F910F91FF90EF90DF90CF90E3
:101110000895CF93DF931F92CDB7DEB769832091F7
:1011200069022223F9F020918C02203258F021E04C
:1011300030E0FC013383228390E080E00F90DF9168
:10114000CF91089580918D02E82FF0E0E75BFD4F8D
:10115000998190838F5F80938D0280938C0281E0D0
:1011600090E0ECCF61E0CE0101960E94CA07F7CF74
:1011700090E080E00895CF92DF92EF92FF920F937C
:101180001F93CF93DF93EC01142F052F8881998152
:101190002A8131E0309369022093480210928D0237
:1011A00010928C02DC01ED91FC910190F081E02D18
:1011B000199588819981DC01ED91FC910190F08174
:1011C000E02D602F199588819981DC01ED91FC91CA
:1011D0000190F081E02D612F1995D0918C02D132D0
:1011E00008F094C0C09148020E94C5036B017C01C5
:1011F0008091DC02811165C082E08093DC0281E095
:101200008093DE028FEF8093DB0210920003D09375
:10121000FF02A9E4B2E0EFEDF2E080E0D81385C070
:101220001092010380910103CC0FC82BC0930103DE
:101230008091DD02813009F07CC01092DD020E94B5
:10124000C5036B017C01809101038093BB008091F9
:101250008F0290919002A0919102B0919202892BFD
:101260008A2B8B2B99F00E94C50300918F0210915D
:10127000900220919102309192026C197D098E09A1
:101280009F090617170728073907E0F18091BC006E
:1012900083FDD9CF85EC8093BC000E94C5036B0110
:1012A0007C018091DC02823009F445C08091DB0230
:1012B0008F3F61F18091DB02803241F18091DB024E
:1012C00025C080918F0290919002A0919102B091DF
:1012D0009202892B8A2B8B2B09F48ACF0E94C5039B
:1012E00000918F0210919002209191023091920210
:1012F0006C197D098E099F090617170728073907FA
:1013000008F076CF80918E020E940F0810928D0215
:1013100010928C0210926902DF91CF911F910F9170
:10132000FF90EF90DF90CF9008959D9191938F5F04
:1013300075CF85EEB0CF80918F0290919002A091F1
:101340009102B0919202892B8A2B8B2B09F4A9CFA1
:101350000E94C50300918F0210919002209191028A
:10136000309192026C197D098E099F0906171707A3
:101370002807390708F095CFC5CF8F929F92AF927B
:10138000BF92EF92FF920F931F93CF93DF938C0145
:10139000FC018685882309F445C0C085D185E68097
:1013A000F7804701B12CA12CDB01653B710514F0DE
:1013B000A4EBB0E0B7FF02C0B0E0A0E09E0150E0B7
:1013C00040E0281939094A095B090E94201624EBDC
:1013D00030E040E050E00E94F615BA01A901480D46
:1013E000591D6A1D7B1D4E155F05B8F4A701F80154
:1013F0008481958184179507A9F05583448363817F
:10140000C801DF91CF911F910F91FF90EF90BF9096
:10141000AF909F908F900C94BB08C417D50738F7F6
:10142000AE01E5CFDF91CF911F910F91FF90EF902B
:10143000BF90AF909F908F900895EF92FF920F937F
:101440001F93CF93DF93EC01288139813327F90172
:10145000E255FD4F8491F901E859FD4FE490F901FF
:10146000EE5DFD4FF4908E010A5C1F4FFF2009F4E2
:1014700039C081110E94E202EF2DF0E0EE0FFF1F54
:10148000EC52FE4FA591B491EC91EE2259F12FB799
:10149000F894609103037091040380910503909187
:1014A00006032FBF2CE231E040E050E00E942816F6
:1014B000672B682B692BB1F4FE01EA5BFF4F80813B
:1014C0009181A281B381C297A105B10559F082E350
:1014D00090E0A0E0B0E080839183A283B383C80151
:1014E0000E940B06C8010E945D071C861D861E8691
:1014F0001F86DF91CF911F910F91FF90EF9008957C
:10150000CF93DF93EC016AE570E048960E94BD0935
:10151000188A198A1A8A1B8ADF91CF91089585ED5E
:101520008093BC0080918F0290919002A0919102D3
:10153000B09192020796A11DB11D23E0B695A79523
:10154000979587952A95D1F72091BC0024FD03C07B
:101550001092DC02089540918F02509190026091A8
:10156000910270919202452B462B472B69F300970D
:10157000A105B10541F025E32A95F1F70000019797
:10158000A109B109E1CF80918E020C940F081F923E
:101590000F920FB60F9211240BB60F922F933F9319
:1015A0004F935F936F937F938F939F93AF93BF936B
:1015B000EF93FF938BE093E00E942202FF91EF9163
:1015C000BF91AF919F918F917F916F915F914F915B
:1015D0003F912F910F900BBE0F900FBE0F901F9059
:1015E00018951F920F920FB60F9211240BB60F92FF
:1015F0002F938F939F93EF93FF93E0911B03F091B1
:101600001C038081E0912103F091220382FD1DC023
:101610009081809124038F5F8F732091250382171F
:1016200041F0E0912403F0E0E55FFC4F958F80935B
:101630002403FF91EF919F918F912F910F900BBEFB
:101640000F900FBE0F901F9018958081F2CF1F92C0
:101650000F920FB60F9211242F933F938F939F9366
:10166000AF93BF938091030390910403A09105036E
:10167000B09106033091020323E0230F2D3758F574
:101680000196A11DB11D2093020380930303909343
:101690000403A0930503B093060380910703909180
:1016A0000803A0910903B0910A030196A11DB11D81
:1016B0008093070390930803A0930903B0930A0350
:1016C000BF91AF919F918F913F912F910F900FBE3E
:1016D0000F901F90189526E8230F0296A11DB11DAB
:1016E000D2CF1F920F920FB60F9211240BB60F920A
:1016F0002F933F934F935F936F937F938F939F931A
:10170000AF93BF93EF93FF938091B900887F8036AA
:1017100009F44DC008F040C0883209F4A9C028F58A
:10172000803109F49DC0C8F4882309F4FBC08830D7
:1017300009F496C0FF91EF91BF91AF919F918F9166
:101740007F916F915F914F913F912F910F900BBEC1
:101750000F900FBE0F901F901895883109F488C024
:10176000803241F78093DB0214C0803409F49DC0BD
:1017700040F48033B9F38833E9F68093DB0285ECDB
:10178000B0C0803509F485C0883509F496C0883426
:1017900089F60E948F0ACECF883909F48CC038F5BB
:1017A000883729F050F4883611F0803719F683E035
:1017B0008093DC021092DA0257C0883809F47BC0AB
:1017C000803919F0803809F0B5CF8091DA02803283
:1017D00008F071C0E091DA0281E08E0F8093DA02A6
:1017E0008091BB00F0E0E654FD4F80833DC0803B1C
:1017F00039F0E0F4803A09F479C0883A09F09ACFD8
:1018000084E08093DC021092B7021092B602E0915D
:10181000B402F091B50219958091B60281110FC002
:1018200081E08093B6021092940209C0803C09F4D2
:10183000A6CF883C09F4A3CF883B09F07BCFE09189
:10184000B70281E08E0F8093B702F0E0EC56FD4FB7
:1018500080818093BB009091B7028091B60229C02D
:10186000809101038093BB0085EC8093BC0062CF24
:10187000909100038091FF02981758F5E0910003C2
:1018800081E08E0F80930003F0E0E152FD4F8081F4
:10189000E9CFE091000381E08E0F809300038091F7
:1018A000BB00F0E0E152FD4F8083909100038091F6
:1018B000FF029817C8F285E8D8CFE091000381E0D5
:1018C0008E0F809300038091BB00F0E0E152FD4F4A
:1018D00080838091DE0281115CCF81E08093DD0204
:1018E00084EA8093BC001092DC0224CF85EC8093C4
:1018F000BC001092DC028091DA02803230F4E09178
:10190000DA02F0E0E654FD4F10826091DA0270E0F6
:10191000E091B802F091B9028AEB92E01995109229
:10192000DA0208CF1092DB0234CF0F931F93CF93CC
:10193000DF936231710588F58B01EC0110928B0207
:1019400010928A0210928D0210928C020E94F1076E
:1019500080E398E09093B5028093B40281E398E02D
:101960009093B9028093B8020B8381E08E8780E266
:1019700092E09F838E8380E699E09987888780EC48
:1019800095E09D838C8340EC55E0602FCE01DF9184
:10199000CF911F910F910C94BB08DF91CF911F91B4
:1019A0000F910895CF93DF93EC01FB01808191812A
:1019B00099838883828193819B838A8384819581A3
:1019C0009D838C83868197819F838E83808591857B
:1019D00099878887828593859B878A878485958563
:1019E000A685B7858C879D87AE87BF8780899189BB
:1019F000A289B389888B998BAA8BBB8B84899589A3
:101A0000A689B7898C8B9D8BAE8BBF8B8FE0789628
:101A1000DE01589601900D928A95E1F78FE0FB0167
:101A2000B796DE01979601900D928A95E1F784E0D2
:101A300092E09FAB8EABFB0180AD88AF81AD89AFEB
:101A400082AD93ADA4ADB5AD8AAF9BAFACAFBDAF2A
:101A5000FE01FE96DB01DE968D919D910D90BC916D
:101A6000A02D80839183A283B383FB01EE5BFF4FA4
:101A700080819181A281B381FE01EE5BFF4F808363
:101A80009183A283B383FB01EA5BFF4F8081918145
:101A9000A281B381FE01EA5BFF4F80839183A28321
:101AA000B383FB01E65BFF4F80819181A281B3810B
:101AB000FE01E65BFF4F80839183A283B383FB012A
:101AC000E25BFF4F80819181A281B381FE01E25BE5
:101AD000FF4F80839183A283B383FB01EE5AFF4FB4
:101AE00080819181A281B381FE01EE5AFF4F8083F4
:101AF0009183A283B383FB01EA5AFF4F80819181D6
:101B0000A281B381FE01EA5AFF4F80839183A283B1
:101B1000B383FB01E65AFF4F80819181A281B3819B
:101B2000FE01E65AFF4F80839183A283B383FB01BA
:101B3000E25AFF4F80819181A281B381FE01E25A76
:101B4000FF4F80839183A283B383FB01EE59FF4F44
:101B500080819181FE01EE59FF4F91838083FB01CB
:101B6000EC59FF4F8081FE01EC59FF4F8083FB0150
:101B7000EB59FF4F8081FE01EB59FF4F8083FB0142
:101B8000EA59FF4F80819181FE01EA59FF4F91830D
:101B90008083FB01E859FF4F80819181FE01E85964
:101BA000FF4F91838083FB01E659FF4F8081918134
:101BB000A281B381FE01E659FF4F80839183A28306
:101BC000B383FB01E259FF4F80819181A281B381F0
:101BD000FE01E259FF4F80839183A283B383FB010F
:101BE000EE58FF4F80819181A281B381FE01EE58B2
:101BF000FF4F80839183A283B3836A587F4FFB0199
:101C000080819181A281B381CA58DF4F88839983F3
:101C1000AA83BB83DF91CF9108954F925F926F9219
:101C20007F928F929F92AF92BF92CF92DF92EF926C
:101C3000FF92CF93DF93EC016A017B0120E030E05B
:101C4000A901CB01B6010E94C61687FF04C0F7FAAE
:101C5000F094F7F8F0948C8C9D8CAE8CBF8CA7011F
:101C60009601C501B4010E94C616882309F449C033
:101C70006CA97DA98EA99FA90E9475172B013C0113
:101C8000A7019601C501B4010E94CB169B01AC01CE
:101C9000C301B2010E942A180E943D176CAB7DABB4
:101CA0008EAB9FABA701960160E070E080E090E40E
:101CB0000E94CB160E949D1826E53EE04DE25FE3B0
:101CC0000E942A1820E034E244E759E40E942A18CE
:101CD00068AF79AF8AAF9BAFCC8EDD8EEE8EFF8E74
:101CE000CE01DF91CF91FF90EF90DF90CF90BF902A
:101CF000AF909F908F907F906F905F904F900C94DB
:101D00000B06DF91CF91FF90EF90DF90CF90BF90C7
:101D1000AF909F908F907F906F905F904F900895BD
:101D20002F923F924F925F926F927F928F929F92EB
:101D3000AF92BF92CF92DF92EF92FF920F931F93D9
:101D4000CF93DF93EC016A837B834C835D833F8376
:101D50002E8319870887FB86EA861C861D861E86C9
:101D60001F86188A198A1A8A1B8A1C8A1D8A1E8A4B
:101D70001F8A27E42A8F88EA93E0998F888F1EA212
:101D800029A798A78FA31DAA6E0126E3C20ED11C16
:101D900084E092E09FAB8EAB81E089AFFE01EE5B09
:101DA000FF4F1082118212821382349610821182A8
:101DB000128213828E01065B1F4FF801108211827E
:101DC000128213827E01FEE4EF0EF11C80E090E0AF
:101DD000A0E8BFE3F70180839183A283B3831E0150
:101DE000F2E52F0E311CF101108211821282138252
:101DF000349680839183A283B3834E01FAE58F0EDC
:101E0000911CF4011082118212821382389621E013
:101E100030E03183208333962FEF20833797108271
:101E20001182128213826AAF4BAF24E02CAF25E0FF
:101E30002DAF369610825E01FAE6AF0EB11CF501A9
:101E400010821182128213823496108211821282C1
:101E50001382349610821182128213823E01F6E7B9
:101E60006F0E711CF30180839183A283B38318AE3C
:101E70001EAE1FAEF697108231961082C6010E94E8
:101E8000EA0340E050E060E87FE3C6010E940D0EE7
:101E900061E088E00E94770360E088E00E944903E7
:101EA00062E088810E94770368857985CE01489633
:101EB0000E94950C6E817F81CE0187960E94950CC1
:101EC00020E030E44CE156E4F701608171818281C9
:101ED00093810E94C616882309F440C080E090E4F4
:101EE000ACE1B6E4F70180839183A283B38380E001
:101EF00090E0A8ECB2E4F30180839183A283B383E2
:101F0000F50180819181A281B381181619061A0604
:101F10001B0624F5F80160817181828193819B0108
:101F2000AC010E942A182B013C01F10160817181F2
:101F3000828193819B01AC010E945A169B01AC01E6
:101F4000C301B2010E94CB160E943D17F5016083C8
:101F5000718382839383C6010E940B0640E050E8A0
:101F60006BEB74E4C6010E940D0E20E030E44CE9F6
:101F700055E4F80160817181828193810E94C616C7
:101F8000882331F1F701C080D180E280F38020E026
:101F900030E44CE955ECC701B6010E94C61687FF34
:101FA0002AC0F7FAF094F7F8F09420E030E0A901A5
:101FB000C701B6010E94C61681112EC0F40110821D
:101FC000118212821382F801C082D182E282F382EE
:101FD000DF91CF911F910F91FF90EF90DF90CF9005
:101FE000BF90AF909F908F907F906F905F904F9039
:101FF0003F902F90089520E030E44CE955E4C7016C
:10200000B6010E94C61687FDD0CFC12C80E4D82E21
:102010008CE9E82E85E4F82EA701960160E074E2D1
:1020200084E799E40E94CB169F770E944417F4013D
:102030006083718382839383BB24B39420E030E078
:10204000A901C701B6010E94251818160CF0B12C81
:10205000B8AEB9CFEF92FF920F931F93CF93DF9358
:10206000CDB7DEB7C45FD1090FB6F894DEBF0FBE9F
:10207000CDBFEBE0F3E01382128288EE93E0A0E0A4
:10208000B0E084839583A683B7832EE132E0318369
:10209000208325EC30E03587248724EC30E0378737
:1020A000268720EC30E0318B208B21EC30E0338B25
:1020B000228B22EC30E0358B248B26EC30E0378B02
:1020C000268B118E128E138E148EE8EAF3E01382A3
:1020D000128284839583A683B78380E392E0918301
:1020E000808385E0E82EF12C04E010E023E030E06E
:1020F00042E050E061E070E080EF95E00E94900ED9
:102100009AE0E92EF12C09E010E028E030E047E009
:1021100050E066E070E086E795E00E94900E66E78A
:1021200075E0CE0185589F4F0E94D20C60EF75E09C
:10213000CE0101960E94D20C8FEF90E09093B503F0
:102140008093B40310925704109256048BE090E0F1
:10215000909359048093580410925A0410925B048F
:1021600010925C0410925D04BE016F5F7F4F8EE59C
:1021700094E00E94D20CBE0165587F4F88ED94E038
:102180000E94D20C85E090E0909353058093520515
:1021900080E090E0A0EFB1E4809354059093550562
:1021A000A0935605B093570580E090E0A4E3B3E414
:1021B0008093580590935905A0935A05B0935B05F9
:1021C00080E090E0A0E8BFE380935C0590935D051C
:1021D000A0935E05B0935F058093600590936105C1
:1021E000A0936205B09363058093640590936505A1
:1021F000A0936605B0936705809368059093690581
:10220000A0936A05B0936B0580E090E0A4E3B2E48C
:1022100080936C0590936D05A0936E05B0936F0548
:1022200080E090E0A0E4B0E48093700590937105A5
:10223000A0937205B093730581E090E090937505CB
:1022400080937405CC50DF4F0FB6F894DEBF0FBEFD
:10225000CDBFDF91CF911F910F91FF90EF90089527
:10226000CF93DF93CDB7DEB7789484B5826084BD19
:1022700084B5816084BD85B5826085BD85B581608A
:1022800085BD80916E00816080936E001092810008
:1022900080918100826080938100809181008160C3
:1022A0008093810080918000816080938000809184
:1022B000B10084608093B1008091B0008160809310
:1022C000B000809191008260809391008091910094
:1022D0008160809391008091900081608093900054
:1022E0008091A10082608093A1008091A100816013
:1022F0008093A1008091A00081608093A0008091D4
:10230000210182608093210180912101816080936D
:1023100021018091200181608093200180917A00C9
:10232000846080937A0080917A00826080937A0042
:1023300080917A00816080937A0080917A00806831
:1023400080937A001092C100E0911B03F0911C036E
:1023500082E08083E0911703F09118031082E091EE
:102360001903F0911A038FEC808310922303E091FC
:102370001F03F091200386E08083E0911D03F0911C
:102380001E03808180618083E0911D03F0911E0314
:10239000808188608083E0911D03F0911E0380811D
:1023A00080688083E0911D03F0911E0380818F7D02
:1023B00080836091B4038BE093E00E944402F4E0D8
:1023C000CF2ED12CEE24E394F12C8BE093E00E94ED
:1023D0000C0218161906B4F58BE093E00E94EA018E
:1023E000813329F1A0F4803309F475C045E050E051
:1023F0006EE372E08BE093E00E94AE0142E050E0B9
:1024000064E472E08BE093E00E94AE011BC0833372
:1024100009F46DC0843351F78091520590915305B2
:10242000039781F4D0925305C09252050BC080915E
:102430005205909153058B7F019721F4109253051B
:102440001092520580915604909157040A9791F585
:10245000ADB6BEB6EDB7FEB7E05AF1090FB6F894C7
:10246000FEBF0FBEEDBF8DB79EB701964C010AE0CF
:1024700010E040E150E070E060E0C4010E942219E9
:1024800001501109B1F70FB6F894BEBE0FBEADBE34
:1024900010E000E041E050E0B8018BE093E00E94E2
:1024A000AE010F5F1F4F043A1105A1F710925704B8
:1024B00010925604809152059091530582309105F7
:1024C00009F463C014F5009729F1019709F483C357
:1024D0000E94B1027ACF80915205909153050297E4
:1024E00009F0B0CFF0925305E0925205ABCF809146
:1024F000520590915305029709F0A4CF83E090E034
:1025000090935305809352059DCF05970CF782E079
:1025100090E067C382E090E090935305809352056A
:102520008EE594E00E94800A6AE570E085E894E018
:102530000E94BD09109272041092730410927404E8
:10254000109275048EE594E00E941D0A88ED94E0D7
:102550000E94800A6AE570E08FEF94E00E94BD0956
:102560001092EC041092ED041092EE041092EF041D
:1025700088ED94E00E941D0A10925A0410925B04A8
:1025800010925C0410925D04A3CF209160053091FD
:102590006105409162055091630560915A04709104
:1025A0005B0480915C0490915D040E945A16209116
:1025B00058053091590540915A0550915B050E948C
:1025C000C616811122C020915C0530915D054091B5
:1025D0005E0550915F0560916A0470916B04809173
:1025E0006C0490916D040E945A16209170053091F0
:1025F000710540917205509173050E9425181816B7
:1026000024F4F0925305E09252058091740581FF05
:1026100073C0409072045090730460907404709082
:10262000750420916C0530916D0540916E055091B7
:102630006F05C301B2010E94C616882309F416C2B1
:102640008090680590906905A0906A05B0906B0530
:10265000A5019401C301B2010E945A160E943D17C0
:1026600085E894E00E94BD09A5019401609172047F
:102670007091730480917404909175040E945A16AD
:102680006093720470937304809374049093750440
:102690008090680590906905A0906A05B0906B05E0
:1026A0002091EC043091ED044091EE045091EF0440
:1026B000C501B4010E945A160E943D178FEF94E0A5
:1026C0000E94BD09A50194016091EC047091ED0494
:1026D0008091EE049091EF040E945A166093EC04EE
:1026E0007093ED048093EE049093EF0482E090E009
:1026F00090935305809352052091600530916105B8
:10270000409162055091630560915A0470915B0499
:1027100080915C0490915D040E945A160E943D17BE
:102720008B016091540570915505809156059091EB
:1027300057050E943D17AB01C801BA010E94F2186B
:10274000892B09F055C08091740580FF08C08EE583
:1027500094E00E94800A88ED94E00E94800A8090B4
:102760005C0590905D05A0905E05B0905F0520919E
:102770006A0430916B0440916C0450916D04C50162
:10278000B4010E945A162091700530917105409154
:102790007205509173050E94251818160CF083C11C
:1027A0008EE594E00E94800A88ED94E00E94800A01
:1027B00020915A0430915B0440915C0450915D0477
:1027C000609160057091610580916205909163054B
:1027D0000E945A1660935A0470935B0480935C04C1
:1027E00090935D0482E090E09093530580935205AE
:1027F00020915A0430915B0440915C0450915D0437
:10280000609160057091610580916205909163050A
:102810000E945A1660935A0470935B0480935C0480
:1028200090935D048090640590906505A090660586
:10283000B0906705A501940160916E0470916F04DA
:1028400080917004909171040E9459160E943D1766
:1028500086E794E00E94BD09A501940160916E0491
:1028600070916F0480917004909171040E945916C8
:1028700060936E0470936F0480937004909371045E
:102880008090640590906505A0906605B0906705FE
:10289000A50194016091E8047091E9048091EA0433
:1028A0009091EB040E9459160E943D1780EF94E02E
:1028B0000E94BD09A50194016091E8047091E904AA
:1028C0008091EA049091EB040E9459166093E80409
:1028D0007093E9048093EA049093EB0482E090E023
:1028E0009093530580935205809168040E94A80339
:1028F0009C01A0905604B09057049AE0A916B10428
:1029000009F453C0409172045091730460917404AF
:102910007091750440906E0450906F046090700444
:102920007090710480916A0490916B04A0916C0482
:10293000B0916D048501E4E0000F111FEA95E1F705
:102940000A541C4FF80180839183A283B38344828D
:102950005582668277824087518762877387B90183
:10296000330F880B990B0E94751720E030E040EA86
:102970005BE30E942A189B01AC0160E070E080E8F4
:102980009FE30E94CB1620E030E040E551E40E9436
:102990002A18F8016487758786879787FFEFAF1A33
:1029A000BF0AB0925704A09256048091E2040E949C
:1029B000A803A0905604B09057042AE0A216B104D0
:1029C00009F486CD4091EC045091ED046091EE0441
:1029D0007091EF042090E8043090E9044090EA04FC
:1029E0005090EB046090E4047090E5048090E6045D
:1029F0009090E704850124E0000F111F2A95E1F76C
:102A00000A541C4FF8016082718282829382248270
:102A10003582468257824087518762877387BC011F
:102A2000990F880B990B0E94751720E030E040EA5F
:102A30005BE30E942A189B01AC0160E070E080E833
:102A40009FE30E94CB1620E030E040E551E40E9475
:102A50002A18F8016487758786879787FFEFAF1A72
:102A6000BF0AB0925704A092560432CD6AE570E0D6
:102A700085E894E00E94BD091092720410927304DC
:102A800010927404109275046AE570E08FEF94E080
:102A90000E94BD091092EC041092ED041092EE0415
:102AA0001092EF0429CE20915405309155054091A4
:102AB00056055091570560916005709161058091B0
:102AC0006205909163050E94591620915A04309135
:102AD0005B0440915C0450915D040E945A1660931F
:102AE0005A0470935B0480935C0490935D04C50169
:102AF000B4010E943D170091A4041091A5042091F7
:102B0000A6043091A704601771078207930761F04C
:102B10006093A4047093A5048093A6049093A704E3
:102B200084E994E00E940B0684E994E00E945D072A
:102B3000A501940160916A0470916B0480916C040A
:102B400090916D040E945A1660936A0470936B040E
:102B500080936C0490936D0480905C0590905D056B
:102B6000A0905E05B0905F05C501B40190580E9429
:102B70003D1700911E0510911F05209120053091F1
:102B80002105601771078207930761F060931E05A6
:102B900070931F0580932005909321058EE095E0AA
:102BA0000E940B068EE095E00E945D07A50194014E
:102BB0006091E4047091E5048091E6049091E7044B
:102BC0000E9459166093E4047093E5048093E60430
:102BD0009093E70407CE109257041092560485E0B4
:102BE00090E0909353058093520572CC052E97FB8D
:102BF0001EF400940E940D1657FD07D00E9428165F
:102C000007FC03D04EF40C940D165095409530956A
:102C100021953F4F4F4F5F4F089590958095709548
:102C200061957F4F8F4F9F4F08950E944A16A59F31
:102C3000900DB49F900DA49F800D911D11240895B7
:102C4000B7FF0C9415160E941516821B930B08955E
:102C5000A1E21A2EAA1BBB1BFD010DC0AA1FBB1FA0
:102C6000EE1FFF1FA217B307E407F50720F0A21B12
:102C7000B30BE40BF50B661F771F881F991F1A947F
:102C800069F760957095809590959B01AC01BD01A9
:102C9000CF010895A29FB001B39FC001A39F700D03
:102CA000811D1124911DB29F700D811D1124911D54
:102CB00008955058BB27AA270E9471160C94EB1751
:102CC0000E94DD1738F00E94E41720F039F49F3F8E
:102CD00019F426F40C94DA170EF4E095E7FB0C9443
:102CE000D417E92F0E94FC1758F3BA17620773072D
:102CF0008407950720F079F4A6F50C941E180EF4BD
:102D0000E0950B2EBA2FA02D0B01B90190010C01FB
:102D1000CA01A0011124FF27591B99F0593F50F413
:102D2000503E68F11A16F040A22F232F342F44276B
:102D3000585FF3CF469537952795A795F040539563
:102D4000C9F77EF41F16BA0B620B730B840BBAF033
:102D50009150A1F0FF0FBB1F661F771F881FC2F79E
:102D60000EC0BA0F621F731F841F48F487957795B2
:102D70006795B795F7959E3F08F0B0CF9395880F6C
:102D800008F09927EE0F9795879508950E94B01740
:102D900008F481E008950E94DF160C94EB170E945E
:102DA000E41758F00E94DD1740F029F45F3F29F046
:102DB0000C94D41751110C941F180C94DA170E941C
:102DC000FC1768F39923B1F3552391F3951B550B29
:102DD000BB27AA2762177307840738F09F5F5F4FEE
:102DE000220F331F441FAA1FA9F335D00E2E3AF02D
:102DF000E0E832D091505040E695001CCAF72BD045
:102E0000FE2F29D0660F771F881FBB1F2617370795
:102E10004807AB07B0E809F0BB0B802DBF01FF27C7
:102E200093585F4F3AF09E3F510578F00C94D417B9
:102E30000C941F185F3FE4F3983ED4F38695779582
:102E40006795B795F7959F5FC9F7880F911D969580
:102E5000879597F90895E1E0660F771F881FBB1FDC
:102E6000621773078407BA0720F0621B730B840B89
:102E7000BA0BEE1F88F7E09508950E9444176894F6
:102E8000B1110C941F1808950E94041888F09F57E0
:102E900098F0B92F9927B751B0F0E1F0660F771F7E
:102EA000881F991F1AF0BA95C9F714C0B13091F074
:102EB0000E941E18B1E008950C941E18672F782FF9
:102EC0008827B85F39F0B93FCCF386957795679539
:102ED000B395D9F73EF490958095709561957F4FA5
:102EE0008F4F9F4F0895E89409C097FB3EF490954B
:102EF0008095709561957F4F8F4F9F4F9923A9F0D3
:102F0000F92F96E9BB279395F69587957795679561
:102F1000B795F111F8CFFAF4BB0F11F460FF1BC0A5
:102F20006F5F7F4F8F4F9F4F16C0882311F096E938
:102F300011C0772321F09EE8872F762F05C06623E6
:102F400071F096E8862F70E060E02AF09A95660F9F
:102F5000771F881FDAF7880F9695879597F9089558
:102F6000990F0008550FAA0BE0E8FEEF161617069A
:102F7000E807F907C0F012161306E407F50798F002
:102F8000621B730B840B950B39F40A2661F0232B1B
:102F9000242B252B21F408950A2609F4A140A69597
:102FA0008FEF811D811D089597F99F6780E870E07C
:102FB00060E008959FEF80EC089500240A941616AF
:102FC000170618060906089500240A941216130617
:102FD000140605060895092E0394000C11F48823A5
:102FE00052F0BB0F40F4BF2B11F460FF04C06F5FC1
:102FF0007F4F8F4F9F4F089557FD9058440F551F97
:1030000059F05F3F71F04795880F97FB991F61F06A
:103010009F3F79F087950895121613061406551FE1
:10302000F2CF4695F1DF08C0161617061806991F4D
:10303000F1CF86957105610508940895E894BB2742
:1030400066277727CB0197F908950E94B01708F4F7
:103050008FEF08950E943D180C94EB170E94DD1726
:1030600038F00E94E41720F0952311F00C94D41747
:103070000C94DA1711240C941F180E94FC1770F39B
:10308000959FC1F3950F50E0551F629FF001729F0D
:10309000BB27F00DB11D639FAA27F00DB11DAA1F1C
:1030A000649F6627B00DA11D661F829F2227B00D69
:1030B000A11D621F739FB00DA11D621F839FA00DF4
:1030C000611D221F749F3327A00D611D231F849F44
:1030D000600D211D822F762F6A2F11249F5750409B
:1030E0009AF0F1F088234AF0EE0FFF1FBB1F661F16
:1030F000771F881F91505040A9F79E3F510580F0DF
:103100000C94D4170C941F185F3FE4F3983ED4F34B
:10311000869577956795B795F795E7959F5FC1F782
:10312000FE2B880F911D9695879597F9089519F4B0
:1031300016F40C94DA170C94DD180E940418B8F3F6
:103140009923C9F3B6F39F57550B87FF0E94EB18DD
:103150000024A0E640EA900180585695979528F4FF
:10316000805C660F771F881F20F0261737074807F7
:1031700030F4621B730B840B202931294A2BA6954E
:1031800017940794202531254A2758F7660F771F93
:10319000881F20F026173707480730F4620B730B9F
:1031A000840B200D311D411DA09581F7B901842F9D
:1031B0009158880F9695879508959F3F31F09150CB
:1031C00020F4879577956795B795880F911D96950B
:1031D000879597F9089591505040660F771F881F83
:1031E000D2F7089597FB072E16F4009407D077FDC9
:1031F00009D00E940E1907FC05D03EF490958195E8
:103200009F4F0895709561957F4F0895EE0FFF1FB2
:10321000881F8BBF0790F691E02D1994AA1BBB1B4A
:1032200051E107C0AA1FBB1FA617B70710F0A61BC6
:10323000B70B881F991F5A95A9F780959095BC01E7
:10324000CD010895FB01DC0102C001900D924150B7
:0A3250005040D8F70895F894FFCF1E
:10325A00000000001E04EA038305C1056D053B0555
:10326A001A05E604C5046F043C0400000000440289
:10327A00AE01DB0191020C02EA01FE01000000002E
:10328A0089085C08B808320855084208330865728C
:08329A00726F72000D0A0000C2
:00000001FF
